:0200000076295F
:10000800FE0003088301AA000408AB000A08AC003C
:100018008A017F08AD0083011A08A0008711F02823
:100028000608EE28C521A2003039A3000708CF39F9
:10003800230487006929A501A601A4214328A50155
:10004800A50AA601A42146280230A500A601A421DC
:1000580048280330A500A601A4214A280430A50099
:10006800A601A4214C280530A500A601A4214E28EC
:100078000630A500A601A4215028A5015228A501F3
:10008800A50A52280230512803305128043051283B
:1000980005305128063051280730A500A601A421B3
:1000A8006929003006180130EE2800308618013022
:1000B800EE28003006190130EE280030861901308C
:1000C800EE280030061A0130EE280030861A01307A
:1000D800EE280030061B0130EE280030861B013068
:1000E800EE28C521A200C521A10022089B002108F5
:1000F800A3000310A30C0310230C3039A4001D081F
:10010800CF3924049D006929C521A200C521A10079
:10011800220895002108A3000310A30C0310230C48
:100128003039A4001708CF39240497006929C5215C
:10013800A300230C031CA2280716692907126929A2
:10014800C521A300230C031CAB2887166929871235
:1001580069290808F039EE28C521A2000F39A30043
:100168000808F039230488006929C521A300230C55
:10017800031CC0280814692908106929C521A3008F
:10018800230C031CC9288814692988106929C521EA
:10019800A300230C031CD228081569290811692912
:1001A800C521A300230C031CDB28881569298811A5
:1001B80069290030081A0130EE280030881A013009
:1001C800EE280030081B0130EE280030881B013073
:1001D800EE286330E72169292008033A0319142817
:1001E800073A031916280E3A03191F28013A03196A
:1001F8002328073A03192828013A03192D28033A16
:1002080003193228013A031937281F3A03193C28E1
:10021800043A03194128013A03194328033A0319F8
:100228004628013A031948280F3A03194A28013A7F
:1002380003194C28033A03194E28013A0319502888
:10024800053A03195528013A031959283F3A031961
:100258005D28013A03196128033A03196528013A10
:1002680003196928073A03196D28013A03197128F7
:100278000C3A03197528033A03198828063A031912
:100288009B28013A0319A4281F3A0319AD28013AFB
:100298000319B0280F3A0319B928013A0319C228DB
:1002A800033A0319CB28013A0319D4287F3A0319D2
:1002B800DD28013A0319E128033A0319E528013A30
:1002C8000319E928263A0319ED28031383122D0888
:1002D800FF002B0884002C088A002A088300FE0EE1
:1002E8007E0E0900F02940308B00903083120313F2
:1002F8009800831681013F308500FF3086008030EA
:100308008700F03088000730890020308C008D018C
:10031800243098000A309900FF30920007309C0082
:100328009D0180309F008312850187018801950116
:100338009B01043092000C3097009D008B17080039
:1003480083012608803AFF0080307F0208300319B5
:100358002502031808002508A8000310A80D03109B
:10036800A80D0310280D81389F001430A700A70B93
:10037800BB291F151F19BE291E08E72183161E0851
:10038800E7298301A501A601CC29A50A0319A60A14
:100398008C1AD8292608803AFF00FA307F021230DA
:1003A80003192502031CC9291A0808008301A000A3
:1003B8000430A100FA30A200A20BE029A10BDE292B
:1003C800A00BDC2908008301A900831203130C1E6B
:1003D800E929290899000800772107148715F229C7
:02400E00323F3F
:00000001FF
